{
  "contractName": "ZombieFactory",
  "abi": [
    {
      "anonymous": false,
      "inputs": [
        {
          "indexed": false,
          "internalType": "uint256",
          "name": "id",
          "type": "uint256"
        },
        {
          "indexed": false,
          "internalType": "string",
          "name": "name",
          "type": "string"
        },
        {
          "indexed": false,
          "internalType": "uint256",
          "name": "dna",
          "type": "uint256"
        },
        {
          "indexed": false,
          "internalType": "uint32",
          "name": "level",
          "type": "uint32"
        },
        {
          "indexed": false,
          "internalType": "uint32",
          "name": "readyTime",
          "type": "uint32"
        }
      ],
      "name": "NewZombie",
      "type": "event"
    },
    {
      "anonymous": false,
      "inputs": [
        {
          "indexed": true,
          "internalType": "address",
          "name": "previousOwner",
          "type": "address"
        },
        {
          "indexed": true,
          "internalType": "address",
          "name": "newOwner",
          "type": "address"
        }
      ],
      "name": "OwnershipTransferred",
      "type": "event"
    },
    {
      "constant": true,
      "inputs": [],
      "name": "isOwner",
      "outputs": [
        {
          "internalType": "bool",
          "name": "",
          "type": "bool"
        }
      ],
      "payable": false,
      "stateMutability": "view",
      "type": "function"
    },
    {
      "constant": true,
      "inputs": [],
      "name": "owner",
      "outputs": [
        {
          "internalType": "address",
          "name": "",
          "type": "address"
        }
      ],
      "payable": false,
      "stateMutability": "view",
      "type": "function"
    },
    {
      "constant": false,
      "inputs": [],
      "name": "renounceOwnership",
      "outputs": [],
      "payable": false,
      "stateMutability": "nonpayable",
      "type": "function"
    },
    {
      "constant": true,
      "inputs": [],
      "name": "totalZombies",
      "outputs": [
        {
          "internalType": "uint256",
          "name": "",
          "type": "uint256"
        }
      ],
      "payable": false,
      "stateMutability": "view",
      "type": "function"
    },
    {
      "constant": false,
      "inputs": [
        {
          "internalType": "address",
          "name": "newOwner",
          "type": "address"
        }
      ],
      "name": "transferOwnership",
      "outputs": [],
      "payable": false,
      "stateMutability": "nonpayable",
      "type": "function"
    },
    {
      "constant": true,
      "inputs": [
        {
          "internalType": "uint256",
          "name": "",
          "type": "uint256"
        }
      ],
      "name": "zombieOwner",
      "outputs": [
        {
          "internalType": "address",
          "name": "",
          "type": "address"
        }
      ],
      "payable": false,
      "stateMutability": "view",
      "type": "function"
    },
    {
      "constant": true,
      "inputs": [
        {
          "internalType": "uint256",
          "name": "",
          "type": "uint256"
        }
      ],
      "name": "zombies",
      "outputs": [
        {
          "internalType": "uint256",
          "name": "id",
          "type": "uint256"
        },
        {
          "internalType": "string",
          "name": "name",
          "type": "string"
        },
        {
          "internalType": "uint256",
          "name": "dna",
          "type": "uint256"
        },
        {
          "internalType": "uint32",
          "name": "level",
          "type": "uint32"
        },
        {
          "internalType": "uint32",
          "name": "readyTime",
          "type": "uint32"
        }
      ],
      "payable": false,
      "stateMutability": "view",
      "type": "function"
    },
    {
      "constant": false,
      "inputs": [
        {
          "internalType": "string",
          "name": "_name",
          "type": "string"
        }
      ],
      "name": "newZombie",
      "outputs": [],
      "payable": false,
      "stateMutability": "nonpayable",
      "type": "function"
    }
  ],
  "bytecode": "0x608060405260006001556010600555600554600a0a60065562015180600755336000806101000a81548173ffffffffffffffffffffffffffffffffffffffff021916908373ffffffffffffffffffffffffffffffffffffffff1602179055506000809054906101000a900473ffffffffffffffffffffffffffffffffffffffff1673ffffffffffffffffffffffffffffffffffffffff16600073ffffffffffffffffffffffffffffffffffffffff167f8be0079c531659141344cd1fd0a4f28419497f9722a3daafe3b4186f6b6457e060405160405180910390a3610b44806100e96000396000f3fe608060405234801561001057600080fd5b50600436106100885760003560e01c80638f32d59b1161005b5780638f32d59b1461022a578063a57ea3781461024c578063aa914e6a1461026a578063f2fde38b1461032557610088565b80632052465e1461008d57806327b7612f14610168578063715018a6146101d65780638da5cb5b146101e0575b600080fd5b6100b9600480360360208110156100a357600080fd5b8101908080359060200190929190505050610369565b60405180868152602001806020018581526020018463ffffffff1663ffffffff1681526020018363ffffffff1663ffffffff168152602001828103825286818151815260200191508051906020019080838360005b8381101561012957808201518184015260208101905061010e565b50505050905090810190601f1680156101565780820380516001836020036101000a031916815260200191505b50965050505050505060405180910390f35b6101946004803603602081101561017e57600080fd5b8101908080359060200190929190505050610457565b604051808273ffffffffffffffffffffffffffffffffffffffff1673ffffffffffffffffffffffffffffffffffffffff16815260200191505060405180910390f35b6101de61048a565b005b6101e861055a565b604051808273ffffffffffffffffffffffffffffffffffffffff1673ffffffffffffffffffffffffffffffffffffffff16815260200191505060405180910390f35b610232610583565b604051808215151515815260200191505060405180910390f35b6102546105da565b6040518082815260200191505060405180910390f35b6103236004803603602081101561028057600080fd5b810190808035906020019064010000000081111561029d57600080fd5b8201836020820111156102af57600080fd5b803590602001918460018302840111640100000000831117156102d157600080fd5b91908080601f016020809104026020016040519081016040528093929190818152602001838380828437600081840152601f19601f8201169050808301925050505050505091929192905050506105e0565b005b6103676004803603602081101561033b57600080fd5b81019080803573ffffffffffffffffffffffffffffffffffffffff169060200190929190505050610609565b005b6002602052806000526040600020600091509050806000015490806001018054600181600116156101000203166002900480601f01602080910402602001604051908101604052809291908181526020018280546001816001161561010002031660029004801561041b5780601f106103f05761010080835404028352916020019161041b565b820191906000526020600020905b8154815290600101906020018083116103fe57829003601f168201915b5050505050908060020154908060030160009054906101000a900463ffffffff16908060030160049054906101000a900463ffffffff16905085565b60036020528060005260406000206000915054906101000a900473ffffffffffffffffffffffffffffffffffffffff1681565b610492610583565b61049b57600080fd5b600073ffffffffffffffffffffffffffffffffffffffff166000809054906101000a900473ffffffffffffffffffffffffffffffffffffffff1673ffffffffffffffffffffffffffffffffffffffff167f8be0079c531659141344cd1fd0a4f28419497f9722a3daafe3b4186f6b6457e060405160405180910390a360008060006101000a81548173ffffffffffffffffffffffffffffffffffffffff021916908373ffffffffffffffffffffffffffffffffffffffff160217905550565b60008060009054906101000a900473ffffffffffffffffffffffffffffffffffffffff16905090565b60008060009054906101000a900473ffffffffffffffffffffffffffffffffffffffff1673ffffffffffffffffffffffffffffffffffffffff163373ffffffffffffffffffffffffffffffffffffffff1614905090565b60015481565b60008151116105ee57600080fd5b60006105f982610626565b905061060582826106ba565b5050565b610611610583565b61061a57600080fd5b61062381610972565b50565b600080826040516020018082805190602001908083835b60208310610660578051825260208201915060208101905060208303925061063d565b6001836020036101000a0380198251168184511680821785525050505050509050019150506040516020818303038152906040528051906020012060001c9050600060065482816106ad57fe5b0690508092505050919050565b6000825111801561070a57506000600460003373ffffffffffffffffffffffffffffffffffffffff1673ffffffffffffffffffffffffffffffffffffffff16815260200190815260200160002054145b61071357600080fd5b6001600081548092919060010191905055503360036000600154815260200190815260200160002060006101000a81548173ffffffffffffffffffffffffffffffffffffffff021916908373ffffffffffffffffffffffffffffffffffffffff160217905550600460003373ffffffffffffffffffffffffffffffffffffffff1673ffffffffffffffffffffffffffffffffffffffff168152602001908152602001600020600081548092919060010191905055506040518060a001604052806001548152602001838152602001828152602001600163ffffffff168152602001600754420163ffffffff1681525060026000600154815260200190815260200160002060008201518160000155602082015181600101908051906020019061083d929190610a6a565b506040820151816002015560608201518160030160006101000a81548163ffffffff021916908363ffffffff16021790555060808201518160030160046101000a81548163ffffffff021916908363ffffffff1602179055509050507fcd8ddfc9983b4b1e5fe91c09455959df73b887e91b6a0d35dcdad4efb76ca51e60015483836001600754420160405180868152602001806020018581526020018463ffffffff1681526020018363ffffffff1663ffffffff168152602001828103825286818151815260200191508051906020019080838360005b83811015610930578082015181840152602081019050610915565b50505050905090810190601f16801561095d5780820380516001836020036101000a031916815260200191505b50965050505050505060405180910390a15050565b600073ffffffffffffffffffffffffffffffffffffffff168173ffffffffffffffffffffffffffffffffffffffff1614156109ac57600080fd5b8073ffffffffffffffffffffffffffffffffffffffff166000809054906101000a900473ffffffffffffffffffffffffffffffffffffffff1673ffffffffffffffffffffffffffffffffffffffff167f8be0079c531659141344cd1fd0a4f28419497f9722a3daafe3b4186f6b6457e060405160405180910390a3806000806101000a81548173ffffffffffffffffffffffffffffffffffffffff021916908373ffffffffffffffffffffffffffffffffffffffff16021790555050565b828054600181600116156101000203166002900490600052602060002090601f016020900481019282601f10610aab57805160ff1916838001178555610ad9565b82800160010185558215610ad9579182015b82811115610ad8578251825591602001919060010190610abd565b5b509050610ae69190610aea565b5090565b610b0c91905b80821115610b08576000816000905550600101610af0565b5090565b9056fea265627a7a72315820568656ad7805df9a5652cfd073d5e111e37f48d9957ef2da7005bc1aa9b9f74a64736f6c634300050c0032",
  "source": "pragma solidity >=0.5.12;\r\n\r\nimport \"./Ownable.sol\";\r\n\r\ncontract ZombieFactory is Ownable{\r\n\r\n    uint public totalZombies = 0;\r\n\r\n    struct Zombie{\r\n        uint id;\r\n        string name;\r\n        uint dna;\r\n        uint32 level;\r\n        uint32 readyTime;\r\n    }\r\n\r\n    event NewZombie(\r\n        uint id,\r\n        string name,\r\n        uint dna,\r\n        uint32 level,\r\n        uint32 readyTime\r\n    );\r\n\r\n//For storing zombie\r\n    mapping(uint => Zombie) public zombies;\r\n//For storing address of all id zombies\r\n    mapping (uint => address) public zombieOwner;\r\n//For storing zombie count of all address\r\n    mapping (address => uint) ownerZombieCount;\r\n\r\n    uint dnaDigits = 16;\r\n    uint dnaModulus = 10 ** dnaDigits;\r\n    uint cooldownTime = 1 days;\r\n\r\n//Function called for new zombie publicly\r\n    function newZombie(string memory _name)public{\r\n    \trequire((bytes(_name).length > 0));\r\n        uint dna = genDna(_name);\r\n        _createZombie(_name, dna);\r\n    }\r\n\r\n//Function to process and store new zombie\r\n    function _createZombie(string memory _name, uint dna)internal{\r\n    \trequire((bytes(_name).length > 0) && (ownerZombieCount[msg.sender] == 0));\r\n        totalZombies++;\r\n        zombieOwner[totalZombies] = msg.sender;\r\n        ownerZombieCount[msg.sender]++;\r\n        zombies[totalZombies] = Zombie(totalZombies,_name,dna, 1, uint32(now + cooldownTime));\r\n        emit NewZombie(totalZombies,_name,dna, 1, uint32(now + cooldownTime));\r\n    }\r\n\r\n//Function to generate dna from text\r\n    function genDna(string memory text)private view returns (uint){\r\n        uint rnd = uint(keccak256(abi.encodePacked(text)));\r\n        uint dna = rnd % dnaModulus;\r\n        return dna;\r\n    }\r\n\r\n}",
  "sourcePath": "D:\\Studies\\Projects\\Zombie\\src\\contracts\\ZombieFactory.sol",
  "compiler": {
    "name": "solc",
    "version": "0.5.12+commit.7709ece9.Emscripten.clang"
  },
  "schemaVersion": "3.0.20",
  "updatedAt": "2021-08-22T00:46:17.335Z",
  "networkType": "ethereum",
  "devdoc": {
    "methods": {
      "isOwner()": {
        "return": "true if `msg.sender` is the owner of the contract."
      },
      "owner()": {
        "return": "the address of the owner."
      },
      "renounceOwnership()": {
        "details": "Allows the current owner to relinquish control of the contract."
      },
      "transferOwnership(address)": {
        "details": "Allows the current owner to transfer control of the contract to a newOwner.",
        "params": {
          "newOwner": "The address to transfer ownership to."
        }
      }
    }
  },
  "userdoc": {
    "methods": {
      "renounceOwnership()": {
        "notice": "Renouncing to ownership will leave the contract without an owner. It will not be possible to call the functions with the `onlyOwner` modifier anymore."
      }
    }
  }
}