{
  "contractName": "ZombieHelper",
  "abi": [
    {
      "anonymous": false,
      "inputs": [
        {
          "indexed": false,
          "internalType": "uint256",
          "name": "id",
          "type": "uint256"
        },
        {
          "indexed": false,
          "internalType": "string",
          "name": "name",
          "type": "string"
        },
        {
          "indexed": false,
          "internalType": "uint256",
          "name": "dna",
          "type": "uint256"
        },
        {
          "indexed": false,
          "internalType": "uint32",
          "name": "level",
          "type": "uint32"
        },
        {
          "indexed": false,
          "internalType": "uint32",
          "name": "readyTime",
          "type": "uint32"
        }
      ],
      "name": "NewZombie",
      "type": "event"
    },
    {
      "anonymous": false,
      "inputs": [
        {
          "indexed": true,
          "internalType": "address",
          "name": "previousOwner",
          "type": "address"
        },
        {
          "indexed": true,
          "internalType": "address",
          "name": "newOwner",
          "type": "address"
        }
      ],
      "name": "OwnershipTransferred",
      "type": "event"
    },
    {
      "constant": false,
      "inputs": [
        {
          "internalType": "uint256",
          "name": "_zombieId",
          "type": "uint256"
        },
        {
          "internalType": "uint256",
          "name": "_kittyId",
          "type": "uint256"
        }
      ],
      "name": "feedOnKitty",
      "outputs": [],
      "payable": false,
      "stateMutability": "nonpayable",
      "type": "function"
    },
    {
      "constant": true,
      "inputs": [],
      "name": "isOwner",
      "outputs": [
        {
          "internalType": "bool",
          "name": "",
          "type": "bool"
        }
      ],
      "payable": false,
      "stateMutability": "view",
      "type": "function"
    },
    {
      "constant": false,
      "inputs": [
        {
          "internalType": "string",
          "name": "_name",
          "type": "string"
        }
      ],
      "name": "newZombie",
      "outputs": [],
      "payable": false,
      "stateMutability": "nonpayable",
      "type": "function"
    },
    {
      "constant": true,
      "inputs": [],
      "name": "owner",
      "outputs": [
        {
          "internalType": "address",
          "name": "",
          "type": "address"
        }
      ],
      "payable": false,
      "stateMutability": "view",
      "type": "function"
    },
    {
      "constant": false,
      "inputs": [],
      "name": "renounceOwnership",
      "outputs": [],
      "payable": false,
      "stateMutability": "nonpayable",
      "type": "function"
    },
    {
      "constant": false,
      "inputs": [
        {
          "internalType": "address",
          "name": "_address",
          "type": "address"
        }
      ],
      "name": "setKittyContractAddress",
      "outputs": [],
      "payable": false,
      "stateMutability": "nonpayable",
      "type": "function"
    },
    {
      "constant": true,
      "inputs": [],
      "name": "totalZombies",
      "outputs": [
        {
          "internalType": "uint256",
          "name": "",
          "type": "uint256"
        }
      ],
      "payable": false,
      "stateMutability": "view",
      "type": "function"
    },
    {
      "constant": false,
      "inputs": [
        {
          "internalType": "address",
          "name": "newOwner",
          "type": "address"
        }
      ],
      "name": "transferOwnership",
      "outputs": [],
      "payable": false,
      "stateMutability": "nonpayable",
      "type": "function"
    },
    {
      "constant": true,
      "inputs": [
        {
          "internalType": "uint256",
          "name": "",
          "type": "uint256"
        }
      ],
      "name": "zombieOwner",
      "outputs": [
        {
          "internalType": "address",
          "name": "",
          "type": "address"
        }
      ],
      "payable": false,
      "stateMutability": "view",
      "type": "function"
    },
    {
      "constant": true,
      "inputs": [
        {
          "internalType": "uint256",
          "name": "",
          "type": "uint256"
        }
      ],
      "name": "zombies",
      "outputs": [
        {
          "internalType": "uint256",
          "name": "id",
          "type": "uint256"
        },
        {
          "internalType": "string",
          "name": "name",
          "type": "string"
        },
        {
          "internalType": "uint256",
          "name": "dna",
          "type": "uint256"
        },
        {
          "internalType": "uint32",
          "name": "level",
          "type": "uint32"
        },
        {
          "internalType": "uint32",
          "name": "readyTime",
          "type": "uint32"
        }
      ],
      "payable": false,
      "stateMutability": "view",
      "type": "function"
    },
    {
      "constant": false,
      "inputs": [
        {
          "internalType": "uint256",
          "name": "_zombieId",
          "type": "uint256"
        },
        {
          "internalType": "string",
          "name": "_newName",
          "type": "string"
        }
      ],
      "name": "changeName",
      "outputs": [],
      "payable": false,
      "stateMutability": "nonpayable",
      "type": "function"
    },
    {
      "constant": false,
      "inputs": [
        {
          "internalType": "uint256",
          "name": "_zombieId",
          "type": "uint256"
        },
        {
          "internalType": "uint256",
          "name": "_newDna",
          "type": "uint256"
        }
      ],
      "name": "changeDna",
      "outputs": [],
      "payable": false,
      "stateMutability": "nonpayable",
      "type": "function"
    },
    {
      "constant": true,
      "inputs": [
        {
          "internalType": "address",
          "name": "_owner",
          "type": "address"
        }
      ],
      "name": "getZombiesByOwner",
      "outputs": [
        {
          "internalType": "uint256[]",
          "name": "",
          "type": "uint256[]"
        }
      ],
      "payable": false,
      "stateMutability": "view",
      "type": "function"
    }
  ],
  "bytecode": "0x608060405260006001556010600555600554600a0a60065562015180600755336000806101000a81548173ffffffffffffffffffffffffffffffffffffffff021916908373ffffffffffffffffffffffffffffffffffffffff1602179055506000809054906101000a900473ffffffffffffffffffffffffffffffffffffffff1673ffffffffffffffffffffffffffffffffffffffff16600073ffffffffffffffffffffffffffffffffffffffff167f8be0079c531659141344cd1fd0a4f28419497f9722a3daafe3b4186f6b6457e060405160405180910390a3611499806100e96000396000f3fe608060405234801561001057600080fd5b50600436106100cf5760003560e01c8063715018a61161008c578063a57ea37811610066578063a57ea378146103e0578063aa914e6a146103fe578063c39cbef1146104b9578063f2fde38b1461053c576100cf565b8063715018a61461036a5780638da5cb5b146103745780638f32d59b146103be576100cf565b806317a7f4cc146100d45780632052465e1461010c57806327b7612f146101e75780634412e104146102555780635f4623f1146102ee5780635faf288014610332575b600080fd5b61010a600480360360408110156100ea57600080fd5b810190808035906020019092919080359060200190929190505050610580565b005b6101386004803603602081101561012257600080fd5b810190808035906020019092919050505061070b565b60405180868152602001806020018581526020018463ffffffff1663ffffffff1681526020018363ffffffff1663ffffffff168152602001828103825286818151815260200191508051906020019080838360005b838110156101a857808201518184015260208101905061018d565b50505050905090810190601f1680156101d55780820380516001836020036101000a031916815260200191505b50965050505050505060405180910390f35b610213600480360360208110156101fd57600080fd5b81019080803590602001909291905050506107f9565b604051808273ffffffffffffffffffffffffffffffffffffffff1673ffffffffffffffffffffffffffffffffffffffff16815260200191505060405180910390f35b6102976004803603602081101561026b57600080fd5b81019080803573ffffffffffffffffffffffffffffffffffffffff16906020019092919050505061082c565b6040518080602001828103825283818151815260200191508051906020019060200280838360005b838110156102da5780820151818401526020810190506102bf565b505050509050019250505060405180910390f35b6103306004803603602081101561030457600080fd5b81019080803573ffffffffffffffffffffffffffffffffffffffff169060200190929190505050610956565b005b6103686004803603604081101561034857600080fd5b81019080803590602001909291908035906020019092919050505061099a565b005b610372610a62565b005b61037c610b32565b604051808273ffffffffffffffffffffffffffffffffffffffff1673ffffffffffffffffffffffffffffffffffffffff16815260200191505060405180910390f35b6103c6610b5b565b604051808215151515815260200191505060405180910390f35b6103e8610bb2565b6040518082815260200191505060405180910390f35b6104b76004803603602081101561041457600080fd5b810190808035906020019064010000000081111561043157600080fd5b82018360208201111561044357600080fd5b8035906020019184600183028401116401000000008311171561046557600080fd5b91908080601f016020809104026020016040519081016040528093929190818152602001838380828437600081840152601f19601f820116905080830192505050505050509192919290505050610bb8565b005b61053a600480360360408110156104cf57600080fd5b8101908080359060200190929190803590602001906401000000008111156104f657600080fd5b82018360208201111561050857600080fd5b8035906020019184600183028401116401000000008311171561052a57600080fd5b9091929391929390505050610be1565b005b61057e6004803603602081101561055257600080fd5b81019080803573ffffffffffffffffffffffffffffffffffffffff169060200190929190505050610cb5565b005b6000600860009054906101000a900473ffffffffffffffffffffffffffffffffffffffff1673ffffffffffffffffffffffffffffffffffffffff1663e98b7f4d836040518263ffffffff1660e01b8152600401808281526020019150506101406040518083038186803b1580156105f657600080fd5b505afa15801561060a573d6000803e3d6000fd5b505050506040513d61014081101561062157600080fd5b81019080805190602001909291908051906020019092919080519060200190929190805190602001909291908051906020019092919080519060200190929190805190602001909291908051906020019092919080519060200190929190805190602001909291905050509091929394959697985090919293949596975090919293949596509091929394955090919293945090919293509091925090915090508091505061070683826040518060400160405280600581526020017f6b69747479000000000000000000000000000000000000000000000000000000815250610cd2565b505050565b6002602052806000526040600020600091509050806000015490806001018054600181600116156101000203166002900480601f0160208091040260200160405190810160405280929190818152602001828054600181600116156101000203166002900480156107bd5780601f10610792576101008083540402835291602001916107bd565b820191906000526020600020905b8154815290600101906020018083116107a057829003601f168201915b5050505050908060020154908060030160009054906101000a900463ffffffff16908060030160049054906101000a900463ffffffff16905085565b60036020528060005260406000206000915054906101000a900473ffffffffffffffffffffffffffffffffffffffff1681565b606080600460008473ffffffffffffffffffffffffffffffffffffffff1673ffffffffffffffffffffffffffffffffffffffff1681526020019081526020016000205460405190808252806020026020018201604052801561089d5781602001602082028038833980820191505090505b50905060008090506000600190505b600154811161094b578473ffffffffffffffffffffffffffffffffffffffff166003600083815260200190815260200160002060009054906101000a900473ffffffffffffffffffffffffffffffffffffffff1673ffffffffffffffffffffffffffffffffffffffff16141561093e578083838151811061092957fe5b60200260200101818152505081806001019250505b80806001019150506108ac565b508192505050919050565b80600860006101000a81548173ffffffffffffffffffffffffffffffffffffffff021916908373ffffffffffffffffffffffffffffffffffffffff16021790555050565b601482816002600083815260200190815260200160002060030160009054906101000a900463ffffffff1663ffffffff1610156109d657600080fd5b6003600085815260200190815260200160002060009054906101000a900473ffffffffffffffffffffffffffffffffffffffff1673ffffffffffffffffffffffffffffffffffffffff163373ffffffffffffffffffffffffffffffffffffffff1614610a4157600080fd5b82600260008681526020019081526020016000206002018190555050505050565b610a6a610b5b565b610a7357600080fd5b600073ffffffffffffffffffffffffffffffffffffffff166000809054906101000a900473ffffffffffffffffffffffffffffffffffffffff1673ffffffffffffffffffffffffffffffffffffffff167f8be0079c531659141344cd1fd0a4f28419497f9722a3daafe3b4186f6b6457e060405160405180910390a360008060006101000a81548173ffffffffffffffffffffffffffffffffffffffff021916908373ffffffffffffffffffffffffffffffffffffffff160217905550565b60008060009054906101000a900473ffffffffffffffffffffffffffffffffffffffff16905090565b60008060009054906101000a900473ffffffffffffffffffffffffffffffffffffffff1673ffffffffffffffffffffffffffffffffffffffff163373ffffffffffffffffffffffffffffffffffffffff1614905090565b60015481565b6000815111610bc657600080fd5b6000610bd182610eaa565b9050610bdd8282610f3e565b5050565b600283816002600083815260200190815260200160002060030160009054906101000a900463ffffffff1663ffffffff161015610c1d57600080fd5b6003600086815260200190815260200160002060009054906101000a900473ffffffffffffffffffffffffffffffffffffffff1673ffffffffffffffffffffffffffffffffffffffff163373ffffffffffffffffffffffffffffffffffffffff1614610c8857600080fd5b8383600260008881526020019081526020016000206001019190610cad92919061133f565b505050505050565b610cbd610b5b565b610cc657600080fd5b610ccf816111f6565b50565b6003600084815260200190815260200160002060009054906101000a900473ffffffffffffffffffffffffffffffffffffffff1673ffffffffffffffffffffffffffffffffffffffff163373ffffffffffffffffffffffffffffffffffffffff1614610d3d57600080fd5b6000600260008581526020019081526020016000209050610d5d816112ee565b610d6657600080fd5b6006548381610d7157fe5b069250600060028483600201540181610d8657fe5b04905060405160200180807f6b69747479000000000000000000000000000000000000000000000000000000815250600501905060405160208183030381529060405280519060200120836040516020018082805190602001908083835b60208310610e075780518252602082019150602081019050602083039250610de4565b6001836020036101000a038019825116818451168082178552505050505050905001915050604051602081830303815290604052805190602001201415610e5b57606360648281610e5457fe5b0682030190505b610e9a6040518060400160405280600681526020017f4e6f4e616d65000000000000000000000000000000000000000000000000000081525082610f3e565b610ea382611315565b5050505050565b600080826040516020018082805190602001908083835b60208310610ee45780518252602082019150602081019050602083039250610ec1565b6001836020036101000a0380198251168184511680821785525050505050509050019150506040516020818303038152906040528051906020012060001c905060006006548281610f3157fe5b0690508092505050919050565b60008251118015610f8e57506000600460003373ffffffffffffffffffffffffffffffffffffffff1673ffffffffffffffffffffffffffffffffffffffff16815260200190815260200160002054145b610f9757600080fd5b6001600081548092919060010191905055503360036000600154815260200190815260200160002060006101000a81548173ffffffffffffffffffffffffffffffffffffffff021916908373ffffffffffffffffffffffffffffffffffffffff160217905550600460003373ffffffffffffffffffffffffffffffffffffffff1673ffffffffffffffffffffffffffffffffffffffff168152602001908152602001600020600081548092919060010191905055506040518060a001604052806001548152602001838152602001828152602001600163ffffffff168152602001600754420163ffffffff168152506002600060015481526020019081526020016000206000820151816000015560208201518160010190805190602001906110c19291906113bf565b506040820151816002015560608201518160030160006101000a81548163ffffffff021916908363ffffffff16021790555060808201518160030160046101000a81548163ffffffff021916908363ffffffff1602179055509050507fcd8ddfc9983b4b1e5fe91c09455959df73b887e91b6a0d35dcdad4efb76ca51e60015483836001600754420160405180868152602001806020018581526020018463ffffffff1681526020018363ffffffff1663ffffffff168152602001828103825286818151815260200191508051906020019080838360005b838110156111b4578082015181840152602081019050611199565b50505050905090810190601f1680156111e15780820380516001836020036101000a031916815260200191505b50965050505050505060405180910390a15050565b600073ffffffffffffffffffffffffffffffffffffffff168173ffffffffffffffffffffffffffffffffffffffff16141561123057600080fd5b8073ffffffffffffffffffffffffffffffffffffffff166000809054906101000a900473ffffffffffffffffffffffffffffffffffffffff1673ffffffffffffffffffffffffffffffffffffffff167f8be0079c531659141344cd1fd0a4f28419497f9722a3daafe3b4186f6b6457e060405160405180910390a3806000806101000a81548173ffffffffffffffffffffffffffffffffffffffff021916908373ffffffffffffffffffffffffffffffffffffffff16021790555050565b6000428260030160049054906101000a900463ffffffff1663ffffffff1611159050919050565b60075442018160030160046101000a81548163ffffffff021916908363ffffffff16021790555050565b828054600181600116156101000203166002900490600052602060002090601f016020900481019282601f1061138057803560ff19168380011785556113ae565b828001600101855582156113ae579182015b828111156113ad578235825591602001919060010190611392565b5b5090506113bb919061143f565b5090565b828054600181600116156101000203166002900490600052602060002090601f016020900481019282601f1061140057805160ff191683800117855561142e565b8280016001018555821561142e579182015b8281111561142d578251825591602001919060010190611412565b5b50905061143b919061143f565b5090565b61146191905b8082111561145d576000816000905550600101611445565b5090565b9056fea265627a7a7231582065c0638cd96f5a2f2bfe1d5c853a962252d2e57dc7db2dcdcd4b05f4b0b9e80264736f6c634300050c0032",
  "source": "pragma solidity >=0.5.12;\r\n\r\nimport \"./ZombieFeeding.sol\";\r\n\r\ncontract ZombieHelper is ZombieFeeding {\r\n\r\n//Added to modify or add some conditions to any functions\r\n    modifier aboveLevel(uint _level, uint _zombieId) {\r\n        require(zombies[_zombieId].level >= _level);\r\n        _;\r\n    }\r\n\r\n//Function will run if the added condition matches\r\n    function changeName(uint _zombieId, string calldata _newName) external aboveLevel(2, _zombieId) {\r\n        require(msg.sender == zombieOwner[_zombieId]);\r\n        zombies[_zombieId].name = _newName;\r\n    }\r\n\r\n    function changeDna(uint _zombieId, uint _newDna) external aboveLevel(20, _zombieId) {\r\n        require(msg.sender == zombieOwner[_zombieId]);\r\n        zombies[_zombieId].dna = _newDna;\r\n    }\r\n\r\n//Getting all zombies by specific owner\r\n    function getZombiesByOwner(address _owner) external view returns(uint[] memory) {\r\n        uint[] memory result = new uint[](ownerZombieCount[_owner]);\r\n        uint count = 0;\r\n        //Checking zombies one by one\r\n        for (uint i = 1; i <= totalZombies; i++) {\r\n            //If matches, then storing id in array\r\n            if (zombieOwner[i] == _owner) {\r\n                result[count] = i;\r\n                count++;\r\n            }\r\n        }\r\n        return result;\r\n    }\r\n\r\n}\r\n",
  "sourcePath": "D:/Studies/Projects/Zombie/src/contracts/ZombieHelper.sol",
  "compiler": {
    "name": "solc",
    "version": "0.5.12+commit.7709ece9.Emscripten.clang"
  },
  "schemaVersion": "3.0.20",
  "updatedAt": "2021-08-22T00:46:17.338Z",
  "networkType": "ethereum",
  "devdoc": {
    "methods": {
      "isOwner()": {
        "return": "true if `msg.sender` is the owner of the contract."
      },
      "owner()": {
        "return": "the address of the owner."
      },
      "renounceOwnership()": {
        "details": "Allows the current owner to relinquish control of the contract."
      },
      "transferOwnership(address)": {
        "details": "Allows the current owner to transfer control of the contract to a newOwner.",
        "params": {
          "newOwner": "The address to transfer ownership to."
        }
      }
    }
  },
  "userdoc": {
    "methods": {
      "renounceOwnership()": {
        "notice": "Renouncing to ownership will leave the contract without an owner. It will not be possible to call the functions with the `onlyOwner` modifier anymore."
      }
    }
  }
}