{
  "contractName": "ZombieFactory",
  "abi": [
    {
      "anonymous": false,
      "inputs": [
        {
          "indexed": false,
          "internalType": "uint256",
          "name": "id",
          "type": "uint256"
        },
        {
          "indexed": false,
          "internalType": "string",
          "name": "name",
          "type": "string"
        },
        {
          "indexed": false,
          "internalType": "uint256",
          "name": "dna",
          "type": "uint256"
        },
        {
          "indexed": false,
          "internalType": "uint32",
          "name": "level",
          "type": "uint32"
        },
        {
          "indexed": false,
          "internalType": "uint32",
          "name": "readyTime",
          "type": "uint32"
        },
        {
          "indexed": false,
          "internalType": "uint16",
          "name": "winCount",
          "type": "uint16"
        },
        {
          "indexed": false,
          "internalType": "uint16",
          "name": "lossCount",
          "type": "uint16"
        }
      ],
      "name": "NewZombie",
      "type": "event"
    },
    {
      "anonymous": false,
      "inputs": [
        {
          "indexed": true,
          "internalType": "address",
          "name": "previousOwner",
          "type": "address"
        },
        {
          "indexed": true,
          "internalType": "address",
          "name": "newOwner",
          "type": "address"
        }
      ],
      "name": "OwnershipTransferred",
      "type": "event"
    },
    {
      "constant": true,
      "inputs": [],
      "name": "isOwner",
      "outputs": [
        {
          "internalType": "bool",
          "name": "",
          "type": "bool"
        }
      ],
      "payable": false,
      "stateMutability": "view",
      "type": "function"
    },
    {
      "constant": true,
      "inputs": [],
      "name": "owner",
      "outputs": [
        {
          "internalType": "address",
          "name": "",
          "type": "address"
        }
      ],
      "payable": false,
      "stateMutability": "view",
      "type": "function"
    },
    {
      "constant": false,
      "inputs": [],
      "name": "renounceOwnership",
      "outputs": [],
      "payable": false,
      "stateMutability": "nonpayable",
      "type": "function"
    },
    {
      "constant": true,
      "inputs": [],
      "name": "totalZombies",
      "outputs": [
        {
          "internalType": "uint256",
          "name": "",
          "type": "uint256"
        }
      ],
      "payable": false,
      "stateMutability": "view",
      "type": "function"
    },
    {
      "constant": false,
      "inputs": [
        {
          "internalType": "address",
          "name": "newOwner",
          "type": "address"
        }
      ],
      "name": "transferOwnership",
      "outputs": [],
      "payable": false,
      "stateMutability": "nonpayable",
      "type": "function"
    },
    {
      "constant": true,
      "inputs": [
        {
          "internalType": "uint256",
          "name": "",
          "type": "uint256"
        }
      ],
      "name": "zombieOwner",
      "outputs": [
        {
          "internalType": "address",
          "name": "",
          "type": "address"
        }
      ],
      "payable": false,
      "stateMutability": "view",
      "type": "function"
    },
    {
      "constant": true,
      "inputs": [
        {
          "internalType": "uint256",
          "name": "",
          "type": "uint256"
        }
      ],
      "name": "zombies",
      "outputs": [
        {
          "internalType": "uint256",
          "name": "id",
          "type": "uint256"
        },
        {
          "internalType": "string",
          "name": "name",
          "type": "string"
        },
        {
          "internalType": "uint256",
          "name": "dna",
          "type": "uint256"
        },
        {
          "internalType": "uint32",
          "name": "level",
          "type": "uint32"
        },
        {
          "internalType": "uint32",
          "name": "readyTime",
          "type": "uint32"
        },
        {
          "internalType": "uint16",
          "name": "winCount",
          "type": "uint16"
        },
        {
          "internalType": "uint16",
          "name": "lossCount",
          "type": "uint16"
        }
      ],
      "payable": false,
      "stateMutability": "view",
      "type": "function"
    },
    {
      "constant": false,
      "inputs": [
        {
          "internalType": "string",
          "name": "_name",
          "type": "string"
        }
      ],
      "name": "newZombie",
      "outputs": [],
      "payable": false,
      "stateMutability": "nonpayable",
      "type": "function"
    }
  ],
  "bytecode": "0x608060405260006001556010600555600554600a0a60065562015180600755336000806101000a81548173ffffffffffffffffffffffffffffffffffffffff021916908373ffffffffffffffffffffffffffffffffffffffff1602179055506000809054906101000a900473ffffffffffffffffffffffffffffffffffffffff1673ffffffffffffffffffffffffffffffffffffffff16600073ffffffffffffffffffffffffffffffffffffffff167f8be0079c531659141344cd1fd0a4f28419497f9722a3daafe3b4186f6b6457e060405160405180910390a3610c62806100e96000396000f3fe608060405234801561001057600080fd5b50600436106100885760003560e01c80638f32d59b1161005b5780638f32d59b14610248578063a57ea3781461026a578063aa914e6a14610288578063f2fde38b1461034357610088565b80632052465e1461008d57806327b7612f14610186578063715018a6146101f45780638da5cb5b146101fe575b600080fd5b6100b9600480360360208110156100a357600080fd5b8101908080359060200190929190505050610387565b60405180888152602001806020018781526020018663ffffffff1663ffffffff1681526020018563ffffffff1663ffffffff1681526020018461ffff1661ffff1681526020018361ffff1661ffff168152602001828103825288818151815260200191508051906020019080838360005b8381101561014557808201518184015260208101905061012a565b50505050905090810190601f1680156101725780820380516001836020036101000a031916815260200191505b509850505050505050505060405180910390f35b6101b26004803603602081101561019c57600080fd5b810190808035906020019092919050505061049d565b604051808273ffffffffffffffffffffffffffffffffffffffff1673ffffffffffffffffffffffffffffffffffffffff16815260200191505060405180910390f35b6101fc6104d0565b005b6102066105a0565b604051808273ffffffffffffffffffffffffffffffffffffffff1673ffffffffffffffffffffffffffffffffffffffff16815260200191505060405180910390f35b6102506105c9565b604051808215151515815260200191505060405180910390f35b610272610620565b6040518082815260200191505060405180910390f35b6103416004803603602081101561029e57600080fd5b81019080803590602001906401000000008111156102bb57600080fd5b8201836020820111156102cd57600080fd5b803590602001918460018302840111640100000000831117156102ef57600080fd5b91908080601f016020809104026020016040519081016040528093929190818152602001838380828437600081840152601f19601f820116905080830192505050505050509192919290505050610626565b005b6103856004803603602081101561035957600080fd5b81019080803573ffffffffffffffffffffffffffffffffffffffff16906020019092919050505061064f565b005b6002602052806000526040600020600091509050806000015490806001018054600181600116156101000203166002900480601f0160208091040260200160405190810160405280929190818152602001828054600181600116156101000203166002900480156104395780601f1061040e57610100808354040283529160200191610439565b820191906000526020600020905b81548152906001019060200180831161041c57829003601f168201915b5050505050908060020154908060030160009054906101000a900463ffffffff16908060030160049054906101000a900463ffffffff16908060030160089054906101000a900461ffff169080600301600a9054906101000a900461ffff16905087565b60036020528060005260406000206000915054906101000a900473ffffffffffffffffffffffffffffffffffffffff1681565b6104d86105c9565b6104e157600080fd5b600073ffffffffffffffffffffffffffffffffffffffff166000809054906101000a900473ffffffffffffffffffffffffffffffffffffffff1673ffffffffffffffffffffffffffffffffffffffff167f8be0079c531659141344cd1fd0a4f28419497f9722a3daafe3b4186f6b6457e060405160405180910390a360008060006101000a81548173ffffffffffffffffffffffffffffffffffffffff021916908373ffffffffffffffffffffffffffffffffffffffff160217905550565b60008060009054906101000a900473ffffffffffffffffffffffffffffffffffffffff16905090565b60008060009054906101000a900473ffffffffffffffffffffffffffffffffffffffff1673ffffffffffffffffffffffffffffffffffffffff163373ffffffffffffffffffffffffffffffffffffffff1614905090565b60015481565b600081511161063457600080fd5b600061063f8261066c565b905061064b8282610700565b5050565b6106576105c9565b61066057600080fd5b61066981610a74565b50565b600080826040516020018082805190602001908083835b602083106106a65780518252602082019150602081019050602083039250610683565b6001836020036101000a0380198251168184511680821785525050505050509050019150506040516020818303038152906040528051906020012060001c9050600060065482816106f357fe5b0690508092505050919050565b6000825111801561075057506000600460003373ffffffffffffffffffffffffffffffffffffffff1673ffffffffffffffffffffffffffffffffffffffff16815260200190815260200160002054145b61075957600080fd5b6001600081548092919060010191905055503360036000600154815260200190815260200160002060006101000a81548173ffffffffffffffffffffffffffffffffffffffff021916908373ffffffffffffffffffffffffffffffffffffffff1602179055506108126001600460003373ffffffffffffffffffffffffffffffffffffffff1673ffffffffffffffffffffffffffffffffffffffff16815260200190815260200160002054610b6c90919063ffffffff16565b600460003373ffffffffffffffffffffffffffffffffffffffff1673ffffffffffffffffffffffffffffffffffffffff168152602001908152602001600020819055506040518060e001604052806001548152602001838152602001828152602001600163ffffffff168152602001600754420163ffffffff168152602001600061ffff168152602001600061ffff168152506002600060015481526020019081526020016000206000820151816000015560208201518160010190805190602001906108e0929190610b88565b506040820151816002015560608201518160030160006101000a81548163ffffffff021916908363ffffffff16021790555060808201518160030160046101000a81548163ffffffff021916908363ffffffff16021790555060a08201518160030160086101000a81548161ffff021916908361ffff16021790555060c082015181600301600a6101000a81548161ffff021916908361ffff1602179055509050507f275a59a3ef7732d7be8bd324a589e27b846a77e174622cbf2814d091468f478360015483836001600754420160008060405180888152602001806020018781526020018663ffffffff1681526020018563ffffffff1663ffffffff1681526020018461ffff1681526020018361ffff168152602001828103825288818151815260200191508051906020019080838360005b83811015610a30578082015181840152602081019050610a15565b50505050905090810190601f168015610a5d5780820380516001836020036101000a031916815260200191505b509850505050505050505060405180910390a15050565b600073ffffffffffffffffffffffffffffffffffffffff168173ffffffffffffffffffffffffffffffffffffffff161415610aae57600080fd5b8073ffffffffffffffffffffffffffffffffffffffff166000809054906101000a900473ffffffffffffffffffffffffffffffffffffffff1673ffffffffffffffffffffffffffffffffffffffff167f8be0079c531659141344cd1fd0a4f28419497f9722a3daafe3b4186f6b6457e060405160405180910390a3806000806101000a81548173ffffffffffffffffffffffffffffffffffffffff021916908373ffffffffffffffffffffffffffffffffffffffff16021790555050565b600080828401905083811015610b7e57fe5b8091505092915050565b828054600181600116156101000203166002900490600052602060002090601f016020900481019282601f10610bc957805160ff1916838001178555610bf7565b82800160010185558215610bf7579182015b82811115610bf6578251825591602001919060010190610bdb565b5b509050610c049190610c08565b5090565b610c2a91905b80821115610c26576000816000905550600101610c0e565b5090565b9056fea265627a7a72315820251e2154c6daf6f324a1624bbfb4645f42e0b8ce3a300b0a15a8bb185c7f09b464736f6c634300050c0032",
  "source": "pragma solidity >=0.5.12;\r\n\r\nimport \"./Ownable.sol\";\r\nimport './SafeMath.sol';\r\n\r\ncontract ZombieFactory is Ownable{\r\n\r\n    using SafeMath for uint256;\r\n    using SafeMath32 for uint32;\r\n    using SafeMath16 for uint16;\r\n\r\n    uint public totalZombies = 0;\r\n\r\n    struct Zombie{\r\n        uint id;\r\n        string name;\r\n        uint dna;\r\n        uint32 level;\r\n        uint32 readyTime;\r\n        uint16 winCount;\r\n        uint16 lossCount;\r\n    }\r\n\r\n    event NewZombie(\r\n        uint id,\r\n        string name,\r\n        uint dna,\r\n        uint32 level,\r\n        uint32 readyTime,\r\n        uint16 winCount,\r\n        uint16 lossCount\r\n    );\r\n\r\n//For storing zombie\r\n    mapping(uint => Zombie) public zombies;\r\n//For storing address of all id zombies\r\n    mapping (uint => address) public zombieOwner;\r\n//For storing zombie count of all address\r\n    mapping (address => uint) ownerZombieCount;\r\n\r\n    uint dnaDigits = 16;\r\n    uint dnaModulus = 10 ** dnaDigits;\r\n    uint cooldownTime = 1 days;\r\n\r\n//Function called for new zombie publicly\r\n    function newZombie(string memory _name)public{\r\n    \trequire((bytes(_name).length > 0));\r\n        uint dna = genDna(_name);\r\n        _createZombie(_name, dna);\r\n    }\r\n\r\n//Function to process and store new zombie\r\n    function _createZombie(string memory _name, uint dna)internal{\r\n    \trequire((bytes(_name).length > 0) && (ownerZombieCount[msg.sender] == 0));\r\n        totalZombies++;\r\n        zombieOwner[totalZombies] = msg.sender;\r\n        ownerZombieCount[msg.sender] = ownerZombieCount[msg.sender].add(1);\r\n        zombies[totalZombies] = Zombie(totalZombies,_name,dna, 1, uint32(now + cooldownTime),0,0);\r\n        emit NewZombie(totalZombies,_name,dna, 1, uint32(now + cooldownTime),0,0);\r\n    }\r\n\r\n//Function to generate dna from text\r\n    function genDna(string memory text)private view returns (uint){\r\n        uint rnd = uint(keccak256(abi.encodePacked(text)));\r\n        uint dna = rnd % dnaModulus;\r\n        return dna;\r\n    }\r\n\r\n}",
  "sourcePath": "D:\\Studies\\Projects\\Zombie\\src\\contracts\\ZombieFactory.sol",
  "compiler": {
    "name": "solc",
    "version": "0.5.12+commit.7709ece9.Emscripten.clang"
  },
  "schemaVersion": "3.0.20",
  "updatedAt": "2021-08-30T00:00:52.091Z",
  "networkType": "ethereum",
  "devdoc": {
    "methods": {
      "isOwner()": {
        "return": "true if `msg.sender` is the owner of the contract."
      },
      "owner()": {
        "return": "the address of the owner."
      },
      "renounceOwnership()": {
        "details": "Allows the current owner to relinquish control of the contract."
      },
      "transferOwnership(address)": {
        "details": "Allows the current owner to transfer control of the contract to a newOwner.",
        "params": {
          "newOwner": "The address to transfer ownership to."
        }
      }
    }
  },
  "userdoc": {
    "methods": {
      "renounceOwnership()": {
        "notice": "Renouncing to ownership will leave the contract without an owner. It will not be possible to call the functions with the `onlyOwner` modifier anymore."
      }
    }
  }
}