{
  "contractName": "ZombieFactory",
  "abi": [
    {
      "anonymous": false,
      "inputs": [
        {
          "indexed": false,
          "internalType": "uint256",
          "name": "id",
          "type": "uint256"
        },
        {
          "indexed": false,
          "internalType": "string",
          "name": "name",
          "type": "string"
        },
        {
          "indexed": false,
          "internalType": "uint256",
          "name": "dna",
          "type": "uint256"
        }
      ],
      "name": "NewZombie",
      "type": "event"
    },
    {
      "constant": true,
      "inputs": [],
      "name": "totalZombies",
      "outputs": [
        {
          "internalType": "uint256",
          "name": "",
          "type": "uint256"
        }
      ],
      "payable": false,
      "stateMutability": "view",
      "type": "function"
    },
    {
      "constant": true,
      "inputs": [
        {
          "internalType": "uint256",
          "name": "",
          "type": "uint256"
        }
      ],
      "name": "zombies",
      "outputs": [
        {
          "internalType": "uint256",
          "name": "id",
          "type": "uint256"
        },
        {
          "internalType": "string",
          "name": "name",
          "type": "string"
        },
        {
          "internalType": "uint256",
          "name": "dna",
          "type": "uint256"
        }
      ],
      "payable": false,
      "stateMutability": "view",
      "type": "function"
    },
    {
      "constant": false,
      "inputs": [
        {
          "internalType": "string",
          "name": "_name",
          "type": "string"
        }
      ],
      "name": "newZombie",
      "outputs": [],
      "payable": false,
      "stateMutability": "nonpayable",
      "type": "function"
    }
  ],
  "bytecode": "0x6080604052600080556010600255600254600a0a60035534801561002257600080fd5b5061054d806100326000396000f3fe608060405234801561001057600080fd5b50600436106100415760003560e01c80632052465e14610046578063a57ea378146100fb578063aa914e6a14610119575b600080fd5b6100726004803603602081101561005c57600080fd5b81019080803590602001909291905050506101d4565b6040518084815260200180602001838152602001828103825284818151815260200191508051906020019080838360005b838110156100be5780820151818401526020810190506100a3565b50505050905090810190601f1680156100eb5780820380516001836020036101000a031916815260200191505b5094505050505060405180910390f35b610103610296565b6040518082815260200191505060405180910390f35b6101d26004803603602081101561012f57600080fd5b810190808035906020019064010000000081111561014c57600080fd5b82018360208201111561015e57600080fd5b8035906020019184600183028401116401000000008311171561018057600080fd5b91908080601f016020809104026020016040519081016040528093929190818152602001838380828437600081840152601f19601f82011690508083019250505050505050919291929050505061029c565b005b6001602052806000526040600020600091509050806000015490806001018054600181600116156101000203166002900480601f0160208091040260200160405190810160405280929190818152602001828054600181600116156101000203166002900480156102865780601f1061025b57610100808354040283529160200191610286565b820191906000526020600020905b81548152906001019060200180831161026957829003601f168201915b5050505050908060020154905083565b60005481565b60008151116102aa57600080fd5b600080815480929190600101919050555060006102c6826103df565b90506040518060600160405280600054815260200183815260200182815250600160008054815260200190815260200160002060008201518160000155602082015181600101908051906020019061031f929190610473565b50604082015181600201559050507f88f026aacbbecc90c18411df4b1185fd8d9be2470f1962f192bf84a27d0704b760005483836040518084815260200180602001838152602001828103825284818151815260200191508051906020019080838360005b8381101561039f578082015181840152602081019050610384565b50505050905090810190601f1680156103cc5780820380516001836020036101000a031916815260200191505b5094505050505060405180910390a15050565b600080826040516020018082805190602001908083835b6020831061041957805182526020820191506020810190506020830392506103f6565b6001836020036101000a0380198251168184511680821785525050505050509050019150506040516020818303038152906040528051906020012060001c90506000600354828161046657fe5b0690508092505050919050565b828054600181600116156101000203166002900490600052602060002090601f016020900481019282601f106104b457805160ff19168380011785556104e2565b828001600101855582156104e2579182015b828111156104e15782518255916020019190600101906104c6565b5b5090506104ef91906104f3565b5090565b61051591905b808211156105115760008160009055506001016104f9565b5090565b9056fea265627a7a72315820782844b5c1355b9590f31f07b72510d7c91b53e9ff5d9ba6c2e212ed7e540a7764736f6c634300050c0032",
  "source": "pragma solidity 0.5.12;\r\n\r\ncontract ZombieFactory{\r\n\r\n    uint public totalZombies = 0;\r\n\r\n    struct Zombie{\r\n        uint id;\r\n        string name;\r\n        uint dna;\r\n    }\r\n\r\n    event NewZombie(\r\n        uint id,\r\n        string name,\r\n        uint dna\r\n    );\r\n\r\n    mapping(uint => Zombie) public zombies;\r\n\r\n    uint dnaDigits = 16;\r\n    uint dnaModulus = 10 ** dnaDigits;\r\n\r\n    function newZombie(string memory _name)public{\r\n    \trequire((bytes(_name).length > 0));\r\n        totalZombies++;\r\n        uint dna = genDna(_name);\r\n        zombies[totalZombies] = Zombie(totalZombies,_name,dna);\r\n        emit NewZombie(totalZombies,_name,dna);\r\n    }\r\n\r\n    function genDna(string memory text)private view returns (uint){\r\n        uint rnd = uint(keccak256(abi.encodePacked(text)));\r\n        uint dna = rnd % dnaModulus;\r\n        return dna;\r\n    }\r\n\r\n}",
  "sourcePath": "D:/Studies/Projects/Zombie/src/contracts/ZombieFactory.sol",
  "compiler": {
    "name": "solc",
    "version": "0.5.12+commit.7709ece9.Emscripten.clang"
  },
  "schemaVersion": "3.0.20",
  "updatedAt": "2021-08-15T08:57:15.122Z",
  "networkType": "ethereum",
  "devdoc": {
    "methods": {}
  },
  "userdoc": {
    "methods": {}
  }
}